:100000000C9434000C9449000C9449000C94490061
:100010000C9449000C9449000C9449000C9449003C
:100020000C9449000C9449000C9449000C9449002C
:100030000C9449000C9449000C9449000C9449001C
:100040000C9449000C9449000C9449000C9449000C
:100050000C9449000C944B000C9449000C944900FA
:100060000C9449000C94490011241FBECFEFD8E036
:10007000DEBFCDBF11E0A0E0B1E0E6E5F1E002C0F7
:1000800005900D92A230B107D9F70E949E000C9402
:10009000A9000C9400008F9381E0809300018F9160
:1000A0001895ECE7F0E0808180648083808180682F
:1000B000808380818860808380818160808380816B
:1000C000826080838081846080830895ECE7F0E023
:1000D0009081907F9083908121E030E001C0220FD9
:1000E0008A95EAF7922B90830895EEE7F0E09081ED
:1000F00021E030E001C0220F8A95EAF7922B90832D
:100100000895EEE7F0E0908121E030E001C0220F99
:100110008A95EAF7209529232083089510920001FB
:1001200080917A00806480937A008091000181152B
:10013000E1F3809178009091790008950E94510038
:1001400080E00E94750080E00E9466000E948E00A0
:06015000FDCFF894FFCF83
:020156000100A6
:00000001FF
